:020000040800F2
:1000000000500020B500000811010008110100088F
:1000100000000000000000000000000000000000E0
:1000200000000000000000000000000011010008B6
:10003000000000000000000011010008110100088C
:100040001101000811010008110100081101000848
:100050001101000811010008110100081101000838
:100060001101000811010008110100081101000828
:100070001101000811010008110100081101000818
:100080001101000811010008110100081101000808
:1000900011010008110100081101000811010008F8
:1000A00011010008110100081101000811010008E8
:1000B0001901000880B582B000AF104B7B60104B77
:1000C0003B6007E07A68131D7B603B68191D39604F
:1000D00012681A603B680B4A9342F3D30A4B3B60A9
:1000E00004E03B681A1D3A6000221A603B68074A28
:1000F0009342F6D300F024F8FEE700BFD0010008D9
:10010000000000200000002000000020000000206F
:1001100080B400AFFEE7000080B400AF064B0022C1
:100120001A60064B1B68054A83F40053136000BF36
:10013000BD4680BC704700BF100000400C1001405D
:1001400080B400AF194B1B68184A43F010031360CA
:10015000174B1B68164A43F001031360154B1B68CD
:10016000144A23F470031360124B1B68114A43F4C2
:1001700000131360104B41F63F721A600F4B40F2B0
:10018000F3121A600E4B01221A600E4B1B680D4AC7
:1001900043F0805313600C4B01221A600B4B00227A
:1001A0001A604FF0804301221A60FEE718100240E7
:1001B0001C10024004100140280000402C000040A8
:1001C0000C00004000E100E014000040100000407E
:0400000508000000EF
:00000001FF
