:020000040800F2
:1000000000500020D9000008350100083501000823
:1000100000000000000000000000000000000000E0
:100020000000000000000000000000003501000892
:100030000000000000000000350100083501000844
:1000400035010008350100083501000835010008B8
:1000500035010008350100083501000835010008A8
:100060003501000835010008350100083501000898
:100070003501000835010008350100083501000888
:100080003501000835010008350100083501000878
:100090003501000835010008350100083501000868
:1000A0003501000835010008350100083501000858
:1000B0003501000835010008350100083501000848
:1000C0003501000835010008350100083501000838
:1000D000350100083501000880B582B000AF104B33
:1000E0007B60104B3B6007E07A68131D7B603B68C8
:1000F000191D396012681A603B680B4A9342F3D3AA
:100100000A4B3B6004E03B681A1D3A6000221A600B
:100110003B68074A9342F6D300F024F9FEE700BF9C
:100120000905000800000020000000200000002059
:100130000000002080B400AFFEE7000080B483B070
:1001400000AF0346FB7100BF064B1B6803F0800342
:10015000002BF9D0044AFB79136000BF0C37BD4671
:1001600080BC7047003801400438014080B582B03F
:1001700000AF786006E07B685A1C7A601B781846EE
:10018000FFF7DCFF7B681B78002BF4D100BF00BFBA
:100190000837BD4680BD80B584B000AF0346FB7113
:1001A000FB791B09FB73FB7903F00F03BB73FB7B2C
:1001B000092B03D8FB7B3033DBB202E0FB7B373308
:1001C000DBB21846FFF7BAFFBB7B092B03D8BB7B1A
:1001D0003033DBB202E0BB7B3733DBB21846FFF7CC
:1001E000ADFF00BF1037BD4680BD000080B400AF3A
:1001F000084B1B68074A43F48073136000BF064B2B
:100200001B6803F00103002BF9D000BF00BFBD46FF
:1002100080BC7047005400401454004080B400AFCC
:10022000044B1B68034A43F40073136000BFBD46D0
:1002300080BC70470054004080B483B000AF0346D8
:100240000A46FB711346BB71FB795A00BB791A430E
:10025000074B1A6000BF074B1B6803F00203002B1B
:10026000F9D0054B1B6800BF0C37BD4680BC7047FA
:1002700010540040145400401854004080B483B01F
:1002800000AF0346FB7100BF0A4B1B6803F08003FD
:10029000002BF9D0084AFB79136000BF054B1B689F
:1002A00003F00403002BF9D000BF00BF0C37BD469C
:1002B00080BC7047145400401054004080B500AF1B
:1002C000094B1B68084A23F480631360FFF7A6FFFD
:1002D00000BF064B1B6803F04003002BF9D0044B12
:1002E0001B68DBB2184680BD005400401454004027
:1002F0001054004080B582B000AF03460A46FB713F
:100300001346BB71FFF772FF00216820FFF794FFCF
:10031000FB791846FFF7B2FFBB791846FFF7AEFF2F
:10032000FFF77CFF00BF0837BD4680BD80B582B0B7
:1003300000AF0346FB71FFF759FF00216820FFF76C
:100340007BFFFB791846FFF799FFFFF74FFF01216D
:100350006820FFF771FFFFF7B1FF03461846083723
:10036000BD4680BD80B584B000AF424B1B68414A9A
:1003700043F4804343F00C0313603F4B1B683E4A39
:1003800043F4001313603D4B1B683C4A23F0F00319
:1003900013603A4B1B68394A43F0B0031360384B83
:1003A0001B68374A23F07F431360354B1B68344A80
:1003B00043F07F431360334B40F241321A60324BBB
:1003C00042F208021A60314B08221A60304B282290
:1003D0001A60304B09221A602F4B01221A602F48F5
:1003E000FFF7C4FE7520FFF7A1FF0346FB732C48FF
:1003F000FFF7BCFEFB7B1846FFF7CDFE2948FFF751
:10040000B5FEFB7B682B30D12748FFF7AFFE0021FC
:100410006B20FFF76FFF3B20FFF788FF0346BB739E
:100420003C20FFF783FF03467B73BB7B1B021AB2A2
:100430007B7B1BB213437B811C48FFF797FEBB7B82
:100440001846FFF7A8FE7B7B1846FFF7A4FE154869
:10045000FFF78CFE00237B6002E07B6801337B604A
:100460007B68134A9342F8DDD5E71248FFF77EFE1A
:10047000FEE700BF181002401C10024004080140B3
:10048000000C0140083801400C3801400454004081
:100490001C5400402054004000540040B8040008A0
:1004A000C8040008D8040008DC040008EC040008B4
:1004B0001FA10700F4040008493243204D5055366F
:1004C0003035300D0A00000057484F5F414D5F49FD
:1004D0003A203078000000000D0A00004D505536DB
:1004E000303530204F4B210D0A00000041583A2092
:1004F000307800004D505536303530206E6F742006
:09050000666F756E64210D0A009E
:0400000508000000EF
:00000001FF
