:020000040800F2
:1000000000500020B500000811010008110100088F
:1000100000000000000000000000000000000000E0
:1000200000000000000000000000000011010008B6
:10003000000000000000000011010008110100088C
:100040001101000811010008110100081101000848
:100050001101000811010008110100081101000838
:100060001101000811010008110100081101000828
:100070001101000811010008110100081101000818
:100080001101000811010008110100081101000808
:1000900011010008110100081101000811010008F8
:1000A00011010008110100081101000811010008E8
:1000B0001101000880B582B000AF104B7B60104B7F
:1000C0003B6007E07A68131D7B603B68191D39604F
:1000D00012681A603B680B4A9342F3D30A4B3B60A9
:1000E00004E03B681A1D3A6000221A603B68074A28
:1000F0009342F6D300F0FCF8FEE700BF520400087C
:10010000000000200000002000000020000000206F
:1001100080B400AFFEE780B483B000AF786000BF6A
:100120007B685A1E7A60002BFAD100BF00BF0C37E3
:10013000BD4680BC7047000080B483B000AF03466A
:10014000FB7100BF0A4B1B6803F00203002BF9D0C0
:10015000084AFB79136000BF054B1B6803F080035E
:10016000002BF9D100BF00BF0C37BD4680BC7047E3
:10017000083001400C30014080B582B000AF03462A
:10018000FB71094B4FF400221A60074B4FF48012A9
:100190001A60FB791846FFF7CFFF034B10221A6055
:1001A00000BF0837BD4680BD1008014080B582B051
:1001B00000AF0346FB71094B08221A60074B4FF44E
:1001C00080121A60FB791846FFF7B6FF034B102226
:1001D0001A6000BF0837BD4680BD00BF100801404F
:1001E00080B582B000AF4020FFF7C6FF8020FFF748
:1001F000C3FF00237B6005E00020FFF7D7FF7B688B
:1002000001337B607B68B3F5FC7FF5DB00BF00BF8B
:100210000837BD4680BD000080B584B000AF0346FE
:10022000FB710023FB73FB79402B05D9FB795A2B1B
:1002300002D8FB79403BFB730023BB600EE0FA7BE6
:100240000B4913469B001344CA18BB6813441B7820
:100250001846FFF7ABFFBB680133BB60BB68042BDC
:10026000EDDD0020FFF7A2FF00BF1037BD4680BDC7
:10027000B803000880B582B000AF786006E07B6804
:100280005A1C7A601B781846FFF7C6FF7B681B78FC
:10029000002BF4D100BF00BF0837BD4680BD000071
:1002A00080B500AF114B4FF480221A6042F21070FB
:1002B000FFF731FF0D4B04221A6042F21070FFF776
:1002C0002AFF2120FFF758FFB820FFF755FF042031
:1002D000FFF752FF1420FFF74FFF2020FFF74CFFDE
:1002E0000C20FFF749FF00BF80BD00BF1008014090
:1002F00080B500AF2B4B1B682A4A43F4805343F070
:1003000004031360284B1B68274A23F47F2323F43C
:1003100070631360244B1B68234A43F44C3343F44B
:1003200040731360204B1B681F4A23F47003136053
:100330001D4B1B681C4A43F4300313601A4B1B68A7
:10034000194A23F070431360174B1B68164A43F099
:1003500030431360144B1B68134A23F0706313601F
:10036000114B1B68104A43F0806313600F4B4FF42E
:1003700055721A60FFF794FFFFF732FF4020FFF736
:10038000FBFE8020FFF7F8FE0948FFF773FF4120CE
:10039000FFF7F2FE8020FFF7EFFE0648FFF76AFF47
:1003A000FEE700BF18100240000801400030014085
:1003B000400400084804000800000000007E1111FD
:1003C000117E7F494949363E414141227F414122C8
:1003D0001C7F494949417F090909013E4149497A40
:1003E0007F0808087F00417F41002040413F017F96
:1003F000081422417F404040407F020C027F7F046E
:1004000008107F3E4141413E7F090909063E4151A6
:10041000215E7F09192946464949493101017F0179
:10042000013F4040403F1F2040201F3F4038403F99
:1004300063140814630708700807615149454300B5
:1004400053544D333200000042455A204D41474934
:02045000490061
:0400000508000000EF
:00000001FF
