:020000040800F2
:1000000000500020410000089D0000089D000008ED
:1000100000000000000000000000000000000000E0
:100020000000000000000000000000009D0000082B
:1000300000000000000000009D000008A50000086E
:1000400080B582B000AF104B7B60104B3B6007E087
:100050007A68131D7B603B68191D396012681A604D
:100060003B680B4A9342F3D30A4B3B6004E03B6886
:100070001A1D3A6000221A603B68074A9342F6D381
:1000800000F036F8FEE700BFDC01000800000020A9
:1000900000000020000000200400002080B400AF19
:1000A000FEE7000080B400AF044B1B680133034A35
:1000B000136000BFBD4680BC704700BF0000002039
:1000C00080B485B000AF7860084B1B68FB6000BF50
:1000D000064B1A68FB68D31A7A689A42F8D800BFB0
:1000E00000BF1437BD4680BC704700BF0000002031
:1000F00080B582B000AF2D4B1B682C4A43F004033F
:1001000013602B4B1B682A4A43F001031360294BF1
:100110001B68284A23F00F031360264B1B68254AEF
:1001200043F00B031360244B41F63F721A60234BDC
:1001300000221A60224B07221A60224B07221A6003
:10014000214B40F2E7321A60204B00221A60204B0C
:1001500068221A601F4B01221A601F4B01221A608D
:100160004FF0804381221A6000237B6008E0174A29
:100170007B6813600120FFF7A3FF7B6801337B607E
:100180007B68B3F57A7FF2DB40F2E7333B6008E04F
:100190000E4A3B6813600120FFF792FF3B68013B6A
:1001A0003B603B68002BF3DADEE700BF181002402B
:1001B0001C1002400008014014E000E018E000E0DC
:1001C00010E000E0280000402C0000403400004017
:0C01D00018000040200000401400004017
:0400000508000000EF
:00000001FF
